:020000040800F2
:100000008806002081010008890100088B01000892
:1000100000000000000000000000000000000000E0
:100020000000000000000000000000008D0100083A
:1000300000000000000000008F01000871040008AB
:1000400093010008000000009301000893010008DC
:100050009301000893010008930100089301000830
:1000600000000000930100089301000893010008BC
:1000700093010008930100089301000800000000AC
:100080009301000800000000000000009301000838
:1000900000000000930100089301000845040008D7
:1000A0000000000093010008000000009301000818
:1000B00093010008000000000000000000000000A4
:1000C00000F002F800F04CF812A030C808382418EC
:1000D0002D18AC4201D100F043F80FCCA246AB463C
:1000E0000CA730CF2D1B083F3F197C427F1E544484
:1000F0002D090426F441641EAC4201D300F030F80F
:100100000126334200D0FB1A3343984754465D46DC
:10011000DFE70000100A0000300A0000103A02D3A6
:1001200078C878C1FAD8520701D330C830C101D598
:1001300004680C6070470000704700000023002432
:1001400000250026103A01D378C1FBD8520700D30E
:1001500030C100D50B6070471FB51FBD10B510BD75
:1001600000F011F91146FFF7F7FF00F043FC00F033
:1001700029F903B4FFF7F2FF03BC00F02FF90000E8
:100180000748804707480047FEE7FEE7FEE7FEE72F
:10019000FEE7FEE704480549054A064B70470000A4
:1001A00081040008C10000088800002088060020A3
:1001B0008802002088020020034610B50B439B07ED
:1001C0000FD1042A0DD308C810C9121FA342F8D0BA
:1001D00018BA21BA884201D9012010BD0020C043BD
:1001E00010BD002A03D0D30703D0521C07E0002023
:1001F00010BD03780C78401C491C1B1B07D10378E9
:100200000C78401C491C1B1B01D1921EF1D11846D1
:1002100010BD0000002203098B422CD3030A8B423D
:1002200011D300239C464EE003460B433CD40022EE
:1002300043088B4231D303098B421CD3030A8B4200
:1002400001D394463FE0C3098B4201D3CB01C01ACE
:10025000524183098B4201D38B01C01A5241430999
:100260008B4201D34B01C01A524103098B4201D387
:100270000B01C01A5241C3088B4201D3CB00C01AF4
:10028000524183088B4201D38B00C01A524143086C
:100290008B4201D34B00C01A5241411A00D2014691
:1002A0005241104670475DE0CA0F00D0494203102A
:1002B00000D3404253409C46002203098B422DD379
:1002C000030A8B4212D38901FC2212BA030A8B4221
:1002D0000CD3890192118B4208D3890192118B4270
:1002E00004D389013AD0921100E08909C3098B42F5
:1002F00001D3CB01C01A524183098B4201D38B0138
:10030000C01A524143098B4201D34B01C01A5241DA
:1003100003098B4201D30B01C01A5241C3088B421F
:1003200001D3CB00C01A524183088B4201D38B000A
:10033000C01A5241D9D243088B4201D34B00C01A94
:100340005241411A00D201465241104663465B10A9
:1003500001D34042002B00D54942704763465B10F1
:1003600000D3404201B50549002802DC491C084081
:1003700000E00846C046C04602BD00BFFFFFFF7F49
:10038000704770477047754600F024F8AE46050088
:1003900069465346C008C000854618B020B5FFF72F
:1003A000F9FE60BCB64600260027C0C5C0C5C0C562
:1003B000C0C5C0C5C0C5C0C5C0C5403D490849008D
:1003C0008D46704710B50446C046C0462046FFF72C
:1003D000D0FE10BD004870470800002001491820D9
:1003E000ABBEFEE726000200704700001149086816
:1003F0000F2212049043086008680522520410433B
:1004000008600D4A106803231B02184310600B4A52
:100410001068662318431060094A1068184310607A
:100420000868C022904308600868402210430860B2
:100430007047C046000400500404005008040050F7
:100440002404005081B0EA48006800900098002819
:1004500001D1FFE700E0FFE703490868034A1043C2
:10046000086001B07047C0461C540040383F00008F
:1004700002490868401C08607047C04674000020AC
:100480000120C006014908607047C04608ED00E041
:1004900081B001466846017000214056002809D409
:1004A000FFE7684601781F2001400120884002498B
:1004B0000860FFE701B0704780E200E081B00146CC
:1004C0006846017000214056002809D4FFE76846BD
:1004D00001781F2001400120884002490860FFE7A1
:1004E00001B0704700E100E070B582B0024601A89B
:1004F0000270009100214056002816D4FFE7002426
:1005000001A908570322D3431840174A80580957B6
:100510008C07E50EFF24AC40A043009CA401E4B28C
:10052000AC402043194088501AE001A908780F24F4
:10053000204008380322D34318400A4A8058002537
:1005400049578D07EE0EFF25B540A843009DAD012C
:10055000EDB2B54028432140083919408850FFE7E3
:1005600002B070BD1CED00E000E400E001492F2066
:1005700008607047341002400349086801225205A0
:10058000104308607047C0463C10024080B5FFF73A
:10059000EDFFFFF7F1FF80BD80B582B001900198BB
:1005A000002801D1FFE70EE000F084FA0749086057
:1005B000FFE700F07FFA05490968401A019988426F
:1005C00001D2FFE7F5E702B080BDC0466C00002015
:1005D00010B586B0044605A8047004AC21700392DF
:1005E00002A90B7000784006000E17494018814997
:1005F000086008680122520310430860FFE7FB48C7
:1006000000688007002801D4FFE7F8E7F748006892
:10061000C006002801D5FFE713E004A8007873495D
:100620000860FFE7F1480068C007002801D1FFE734
:10063000F8E705A80078039902AA127800F02CF9CF
:10064000FFE706B010BDC0460000010110B58BB039
:100650000AAC207009A80170089207A90B7006AABD
:100660000020107005AA107004AA10700798401C92
:100670000870FFE706A800780390002819D0FFE76C
:100680000398012850D0FFE70398022857D0FFE7CE
:100690000398032863D0FFE70398042800D180E083
:1006A0000398052800D187E00398FF2800D195E042
:1006B00098E007A80078FF2804DDFFE705A9FF20E0
:1006C000087003E0079805A90870FFE70AA80078FA
:1006D0004006000E05A9097809044018009007A8F3
:1006E00001780122100652060192FF29029001DCD6
:1006F00001980290009802994018BD49086004A82A
:10070000007800280BD1FFE704A901200870B84A3F
:10071000116843031943116006A9087003E006A994
:1007200004200870FFE75EE0B048006880070028FA
:1007300004D5FFE706A902200870FFE753E009A8E7
:1007400000782A4908600798401E07A90870059894
:10075000401E05A9087006A90320087043E005A8FB
:100760000078002809D0FFE707A80078002804D007
:10077000FFE706A90420087012E005A80078002809
:1007800009D1FFE707A80078002804D0FFE706A9F1
:100790000020087003E006A9FF200870FFE7FFE7CC
:1007A00021E0924800688007002804D5FFE706A9E9
:1007B00005200870FFE716E00898411C08910078B2
:1007C0000A4908600798401E07A908700598401E4E
:1007D00005A9087006A90320087004E006A90020F6
:1007E000087001E000E045E70BB010BD2854004060
:1007F000185400400454004084B0024602A802701D
:1008000001AA11700078802804DBFFE703A901200A
:10081000087033E01B490020086002A800781A49DC
:100820000A6810430122D2031043086001A800782F
:100830000090002808D0FFE70098012808D0FFE7C3
:100840000098022808D00CE01049124808600CE01B
:100850000E490F48086008E0812080000B490860BD
:1008600003E003A90120087008E006490868012296
:100870001043086003A900200870FFE703A8007870
:1008800004B0704700540040085400401054004029
:1008900009033210130F42308BB00AAB1870099164
:1008A00008A8028007A90020087006A9087005A9F9
:1008B0000870FFE707A800780490002810D0FFE731
:1008C0000498012848D0FFE7049802284FD0FFE79A
:1008D000049803285DD0FFE70498FF287BD07EE0D2
:1008E00008A80088FF2804DDFFE706A9FF2008709C
:1008F00003E0089806A90870FFE70AA800784006F8
:10090000000E06A9097809044018009008A801887B
:1009100001220192100652060292FF29039001DC87
:100920000298039001990098039A80188902401850
:100930002F49086005A80078002809D1FFE705A81D
:10094000012202702A490868520310430860FFE739
:1009500007A90120087043E02448006840070028E8
:1009600004D5FFE707A902200870FFE738E01E481A
:10097000006809994A1C099208700898401E08A945
:1009800008800698401E06A9087007A90320087071
:1009900026E006A80078002809D0FFE708A800880C
:1009A000002804D0FFE707A90120087012E006A87C
:1009B0000078002809D1FFE708A80088002804D0A3
:1009C000FFE707A90020087003E007A9FF200870CF
:1009D000FFE7FFE704E007A90020087001E000E05E
:1009E00068E70BB07047C0462454004018540040DC
:1009F0000454004080B586B0002003900590FFF7B6
:100A0000C5FD7D20C100244800F05AF8FFF7EEFC38
:100A100003990846FFF7F0FE64200490FFF7BCFD41
:100A200003991E4A50200E23FFF710FE0498FFF78B
:100A3000B3FDFFE700F03EF819490968401A652840
:100A400014D3FFE700F036F815490860154A019203
:100A5000502000210E230293FFF7BAFD0198029A5D
:100A60000E49FFF7A9FB10490860FFE700F022F8E4
:100A70000E490968401AFF21F63188420AD3FFE780
:100A800000F018F809490860094908680822504030
:100A90000860FFE7CEE7C0460024F400140B00080E
:100AA0007000002078000020000000206800002076
:100AB00014040050014800687047C04674000020CC
:100AC00080B584B00390029103980299FFF7A2FBCE
:100AD000401E0D4908600D48002101600C4A106855
:100AE0000623184310601068012318431060C843A0
:100AF0000190FFF7F9FC0198FFF7CAFC0198FFF796
:100B0000DDFC04B080BDC04614E000E018E000E069
:100B100010E000E0524F424F54434C55424B4D4978
:100B2000544C0000480B00080000002008000000A2
:100B30001C010008500B000808000020800600007F
:100B40003C0100080000000001000000000000005F
:04000005080000C12E
:00000001FF
