:020000040800F2
:1000000070060020650100086D0100086F010008FE
:1000100000000000000000000000000000000000E0
:100020000000000000000000000000007101000856
:10003000000000000000000073010008AD06000889
:100040007701000800000000770100087701000830
:1000500077010008770100087701000877010008A0
:100060000000000077010008770100087701000810
:100070007701000877010008770100080000000000
:100080007701000800000000000000007701000870
:1000900000000000770100087701000895060008BD
:1000A0000000000077010008000000007701000850
:1000B00077010008000000000000000000000000C0
:1000C00000F002F800F03EF812A030C808382418FA
:1000D0002D18AC4201D100F035F80FCCA246AB464A
:1000E0000CA730CF2D1B083F3F197C427F1E544484
:1000F0002D090426F441641EAC4201D300F022F81D
:100100000126334200D0FB1A3343984754465D46DC
:10011000DFE70000300800004008000070470000E2
:100120000023002400250026103A01D378C1FBD813
:10013000520700D330C100D50B6070471FB51FBDFB
:1001400010B510BD00F072FA1146FFF7F7FF00F08E
:100150009BFB00F08AFA03B4FFF7F2FF03BC00F048
:1001600091FA00000748804707480047FEE7FEE78E
:10017000FEE7FEE7FEE7FEE704480549054A064BB1
:1001800070470000B9060008C10000087000002098
:100190007006002070020020700200200022030977
:1001A0008B422CD3030A8B4211D300239C464EE092
:1001B00003460B433CD4002243088B4231D303094E
:1001C0008B421CD3030A8B4201D394463FE0C30900
:1001D0008B4201D3CB01C01A524183098B4201D318
:1001E0008B01C01A524143098B4201D34B01C01A03
:1001F000524103098B4201D30B01C01A5241C3087B
:100200008B4201D3CB00C01A524183088B4201D3E9
:100210008B00C01A524143088B4201D34B00C01AD5
:100220005241411A00D201465241104670475DE0EA
:10023000CA0F00D04942031000D3404253409C46AD
:10024000002203098B422DD3030A8B4212D389016A
:10025000FC2212BA030A8B420CD3890192118B4201
:1002600008D3890192118B4204D389013AD09211AB
:1002700000E08909C3098B4201D3CB01C01A524166
:1002800083098B4201D38B01C01A524143098B422F
:1002900001D34B01C01A524103098B4201D30B0118
:1002A000C01A5241C3088B4201D3CB00C01A52413D
:1002B00083088B4201D38B00C01A5241D9D2430824
:1002C0008B4201D34B00C01A5241411A00D2014661
:1002D0005241104663465B1001D34042002B00D5CB
:1002E0004942704763465B1000D3404201B505495F
:1002F000002802DC491C084000E00846C046C04611
:1003000002BD00BFFFFFFF7F7047704770470000CE
:100310000246C80FC00781434B0030B54B405B001D
:100320009B0D20D01923DB06C91801231B05994218
:1003300020DB0324A40704251346AB400BD3002B7A
:1003400004D1EB0613409B00E34204D4012464076C
:10035000002312195941FF231B0599420BD2C900F2
:100360000143500F09E0CB0204D5014308030243C7
:1003700005D0054830BDFF21C905084330BD0846FA
:1003800007210905884330BD0000C07F1F22030CF0
:1003900002D10F22000402D0030E03D004E000209B
:1003A000014670470002083A030F01D10001121FF5
:1003B000830F01D18000921E002801DB4000521EF5
:1003C000120551184205C012411810467047C10F5E
:1003D000C90700D04042012292071143D6E701210C
:1003E0008907D3E7F0B58B4C0F09254689B0BD438B
:1003F0007BD01D092646AE43FAD00E465E4027400C
:10040000F60F3E43254071D024012142FBD0FF244A
:10041000AD19A4042D1B039501252D05DB02DB0A74
:10042000C9022B43C90A29431E010901040F130FF6
:10043000050121431701880B820391432D098C4646
:10044000A90B1E438A039543B30B9A0396433F09B6
:10045000BA0B9403A74302962E467E430497B646F2
:100460004E19D7190C460196544305977E43371B06
:100470007646BF1B3601B646BE0B36190096764649
:10048000BC043719009C01D3641C00946400002F45
:1004900001D001263443029E049F754366467E4385
:1004A0000496760034196E0034190094029C019E63
:1004B0001C196643751BAE46069465464519059C96
:1004C00005956C43594375460891691A0191049E3C
:1004D00001465143A41B0491611A009C0791E10657
:1004E00005D061090122114302E072E06EE061096A
:1004F000089D00272C0A2D066918049D7C412A0AB4
:100500002D066918019D6241AC0DAD026D18544174
:10051000079A910D920255196141029A6446584317
:100520005443069B059A5A43121A131B9A0E9B01B9
:100530005B187A41010B0005C3185141220A2006BD
:1005400044195A419A4200D2491C0120400281427A
:1005500003D315230226F64302E014230326F643B1
:100560002020C51AA9401746AF40DA400A4320466A
:100570000399D8400914731819055118039A384380
:10058000D2075140AC4009D00122944006D300224A
:10059000401C5141002C01D1400840001E4A9342AA
:1005A00012D3012203989206904207DB05204007F0
:1005B00009181A480143C012414004E003204007D3
:1005C0000818C10FC907002009B0F0BD0020F107CD
:1005D000FAE705180C464C4111486D42A04115D36D
:1005E00094181A465A410E48644290410ED3012095
:1005F0004A004005824209D35A00824206D359403C
:10060000C90F084AC90700201143DDE70020064949
:10061000DAE700000000FF07FE070000FFFFFF7F92
:100620000000E0FF0000F07F0000F87F754600F05A
:1006300025F8AE46050069465346C008C000854609
:1006400018B020B5FFF798FD60BCB646002600271D
:10065000C0C5C0C5C0C5C0C5C0C5C0C5C0C5C0C572
:10066000403D490849008D46704710B50446C046D4
:10067000C0462046FFF76FFD10BD000000487047E0
:100680000000002001491820ABBEFEE72600020052
:1006900070470000034801684168034A0A4342600A
:1006A0007047C04618540040383F00009648016823
:1006B000491C01607047C0460120C006014908601E
:1006C0007047C04608ED00E001210A040C480368A9
:1006D0001343036002689203FCD582680A43826078
:1006E00082681207FCD5426B2F23134343634A05EC
:1006F000C36B1343C3630903426D0A4342657047EA
:1007000000100240002805D07F490A680B689B1A38
:100710008342FBD37047C04670B54406240E0C4D8F
:100720006519584C256001256D0326682E43266007
:100730006569AD0703D46569ED06F9D570BD6162E1
:100740006169C907FCD011461A4600F03FF870BD38
:1007500000000101B0B542B2002A15D40B4A0023B3
:100760001360946804430120C50325439560022962
:1007700009D848B2800006A108581061106801210C
:10078000014311601846B0BD0120B0BD00540040C7
:10079000130F4230090332100402000010B582B07A
:1007A0004820002401AA02232146FFF7B5FF019843
:1007B00000BA400DFFF713FEFF2293052246FFF714
:1007C00011FEFFF7A5FD02B010BD0000F0B586B028
:1007D00003914006000E029000262A4B05960096D3
:1007E00095B20127FF2D01D8780600E03806FF2DCD
:1007F00000D3FF252904029C09190143B8020818F7
:100800000190049291B2481E81410598C4B2621EC3
:10081000204690410840624262410A40511EF6B2B1
:10082000032E2DD87E4436797600B7440D011D067F
:100830005A69520706D50226F1E700283E46EED156
:100840000E46ECE70126EAE70198186001260098B9
:1008500000280595049AD5D1012670031968014333
:10086000196005950096CDE7186A039908700598F8
:10087000401E0590049A521E491C03910326AFE7BF
:1008800006B0F0BD04540040FFF71EFF0320040231
:100890002146E831164800F039F80F2001041548C8
:1008A00002688A4302600521490402680A43026023
:1008B0004168214341608168662211438160416A39
:1008C0001143416200200146FFF744FF6420FFF717
:1008D00019FF094C094D00F013F82168401A6528EA
:1008E000F9D300F00DF82060FFF758FF2860F2E719
:1008F0000024F40000040050640000206000002088
:10090000014800687047C0466800002080B5FFF7C6
:1009100045FC401E0949486000208860086806229E
:1009200002430A600868012202430A60FF200006B1
:1009300003490A6882430A6080BDC04610E000E0B7
:1009400020ED00E0540900080000002070060000BF
:04095000200100087A
:04000005080000C12E
:00000001FF
